:020000040800F2
:1000000000500020750B0008F10A0008FD0A0008E6
:10001000030B0008090B00080F0B0008000000008C
:10002000000000000000000000000000150B0008A8
:10003000210B0008000000002D0B0008390B000800
:10004000BD0B0008BD0B0008BD0B0008BD0B000870
:10005000BD0B0008BD0B0008BD0B0008BD0B000860
:10006000BD0B0008BD0B0008BD0B0008BD0B000850
:10007000BD0B0008BD0B0008BD0B0008BD0B000840
:10008000BD0B0008BD0B0008BD0B0008BD0B000830
:10009000BD0B0008BD0B0008BD0B0008BD0B000820
:1000A000BD0B0008BD0B0008BD0B0008BD0B000810
:1000B000BD0B0008BD0B0008BD0B0008BD0B000800
:1000C000BD0B0008BD0B0008BD0B0008BD0B0008F0
:1000D000BD0B0008BD0B0008BD0B0008BD0B0008E0
:1000E000BD0B0008BD0B0008BD0B000800000000A0
:1000F0000000000000000000000000000000000000
:0C01000000000000000000005FF808F1A3
:10010C0010B5054C237833B9044B13B10448AFF345
:10011C0000800123237010BD10000020000000009F
:10012C00A01C000808B5034B1BB103490348AFF3EF
:10013C00008008BD0000000014000020A01C000876
:10014C0080B500AF01220821074801F014F8012204
:10015C000821054801F00FF801220821024801F09E
:10016C000AF800BF80BD00BF000C014080B500AF95
:10017C0000220821074800F0FEFF00220821054854
:10018C0000F0F9FF00220821024800F0F4FF00BF44
:10019C0080BD00BF000C014080B500AF01222021C2
:1001AC00074800F0E8FF01222021054800F0E3FF9A
:1001BC0001222021024800F0DEFF00BF80BD00BFFD
:1001CC00000C014080B500AF00222021074800F050
:1001DC00D2FF00222021054800F0CDFF0022202173
:1001EC00024800F0C8FF00BF80BD00BF000C0140FA
:1001FC0080B500AFFFF7A4FFFFF7CEFFFFF7E2FFDC
:10020C00FFF7B4FF00BF80BD80B500AFFFF7AEFFB6
:10021C00FFF7D8FFFFF794FFFFF7BEFF00BF80BDCD
:10022C0080B584B000AF78600023FB7315E0FFF756
:10023C009DFF97F90F307A6813441B78012B02D17C
:10024C00FFF7AAFF01E0FFF7BDFFFFF779FF97F972
:10025C000F30DBB20133DBB2FB7397F90F30072B96
:10026C00E5DD00BF00BF1037BD4680BD80B586B050
:10027C0000AF78600023FB6000233B610023FB751B
:10028C0015E07B681B781A46FB7D42FA03F303F0FA
:10029C000103002B14BF01230023DAB2FB7D07F10D
:1002AC0018010B4403F80C2CFB7D0133FB75FB7D13
:1002BC00072BE6D9FFF79CFF07F10C031846FFF755
:1002CC00AFFFFFF753FFFFF73BFF00F07FF87B68B2
:1002DC001B7803F0C003C02B01D0FFF795FF00BFC4
:1002EC001837BD4680BD80B586B000AF78600B4630
:1002FC00FB700023FB6000233B610023FB752BE0AC
:10030C000023BB7517E0FB7D7A6813441B781A46F3
:10031C00BB7D42FA03F303F00103002B14BF01234E
:10032C000023DAB2BB7D07F118010B4403F80C2C47
:10033C00BB7D0133BB75BB7D072BE4D907F10C03E7
:10034C001846FFF76DFFFFF711FFFFF7F9FE00F0FE
:10035C003DF8FB7D0133FB75FA7DFB789A42CFD3D8
:10036C00FFF752FF00BF1837BD4680BD80B586B081
:10037C0000AF0346FB7107F1080300221A605A60B4
:10038C009A60DA600823BB6000233B6102237B6127
:10039C00FB79002B0AD0012B11D10023FB6007F154
:1003AC0008031946084800F04BFD08E00123FB60E8
:1003BC0007F108031946044800F042FD00BF00BFD6
:1003CC001837BD4680BD00BF0014014080B500AF9A
:1003DC000120FFF7CBFFFFF7C9FE02E00020FFF77B
:1003EC00C5FF0821044800F0AFFE0346002BF5D1F1
:1003FC0000BF00BF80BD00BF000C014080B582B0C3
:10040C0000AF00237B6000233B7040233B703B46D6
:10041C001846FFF72BFFC0233B703B461846FFF7EF
:10042C0025FF3B1D04211846FFF75DFF80233B7021
:10043C003B461846FFF71AFF00BF0837BD4680BD84
:10044C0080B584B000AF03463960FB7100233B7369
:10045C000123FB73FB79072B19D840233B7307F15E
:10046C000C031846FFF702FFC0233B7307F10C0384
:10047C001846FFF7FBFE04213868FFF734FFFB79C1
:10048C00184600F009F80023FB73FB7B00E0FB7BB4
:10049C0018461037BD4680BD80B586B000AF034608
:1004AC00FB710023FB6000233B610123BB75FB79CF
:1004BC00072B30D8FB7963F07703FB710023FB75B6
:1004CC0013E0FA79FB7D42FA03F303F00103002BEE
:1004DC0014BF01230023DAB2FB7D07F118010B4492
:1004EC0003F80C2CFB7D0133FB75FB7D072BE8D946
:1004FC00FFF77EFE07F10C031846FFF791FEFFF79E
:10050C0035FEFFF71DFEFFF761FFFFF77DFE0023B1
:10051C00BB75BB7D00E0BB7D18461837BD4680BD62
:10052C0080B483B000AF0346FB71FB79203B5A2BA0
:10053C0000F21A8101A252F823F000BFED06000868
:10054C00750700087507000875070008750700088F
:10055C00750700087507000875070008750700087F
:10056C0075070008E90600087507000875070008FC
:10057C00E50600087507000875070008B5060008B1
:10058C00B9060008BD060008C1060008C50600082B
:10059C00C9060008CD060008D1060008D5060008DB
:1005AC00D9060008750700087507000875070008CC
:1005BC00750700087507000875070008750700081F
:1005CC00F1060008F9060008FD06000805070008FA
:1005DC00090700080D070008110700081507000897
:1005EC001D070008250700082D0700083107000823
:1005FC0035070008390700083D07000841070008C7
:10060C00450700084D07000851070008550700086A
:10061C00590700085D070008610700086907000812
:10062C006D070008710700087507000875070008BA
:10063C0075070008E1060008DD06000875070008CC
:10064C00F5060008F9060008010700080507000870
:10065C00090700080D070008110700081907000812
:10066C0021070008290700082D070008310700089A
:10067C0035070008390700083D0700084107000846
:10068C00490700084D0700085107000855070008E6
:10069C00590700085D07000865070008690700088E
:1006AC006D070008710700083F235EE006235CE03D
:1006BC005B235AE04F2358E0662356E06D2354E049
:1006CC007D2352E0072350E07F234EE06F234CE064
:1006DC0008234AE0012348E0402346E0632344E03A
:1006EC00002342E0772340E05F233EE07C233CE0A4
:1006FC0039233AE0582338E05E2336E0792334E09E
:10070C00712332E0352330E076232EE074232CE085
:10071C0006232AE0042328E01E2326E0162324E0E7
:10072C00752322E0382320E037231EE054231CE0FD
:10073C005C231AE0732318E07B2316E0672314E094
:10074C00502312E06D2310E078230EE01C230CE004
:10075C003E230AE07E2308E02A2306E0762304E009
:10076C006E2302E01B2300E0002318460C37BD4625
:10077C0080BC704790B583B000AF314B01221A702A
:10078C002F4B02225A702E4B04229A702C4B0822AB
:10079C00DA702B4B10221A71294B20225A71284BDC
:1007AC0040229A71264B8022DA7100F003FA00F095
:1007BC0051F800F0C3F800F093F801220821214809
:1007CC0000F0D9FC012220211E4800F0D4FC1E4967
:1007DC000420FFF735FE1D4B01221A701C4A3B46C4
:1007EC0092E803001860043319700023FB7113E0C6
:1007FC00FB7907F10802134413F8083CFC791846FE
:10080C00FFF78EFE03461A4607F10803234403F84C
:10081C00082CFB790133FB71FB79032BE8D900F031
:10082C0021FA034642F20F72934202D9FFF7E6FD1A
:10083C00F5E73B4619460720FFF702FEEFE700BF3E
:10084C0034000020000C014030000020000000208B
:10085C00B81C000880B590B000AF07F1180328222F
:10086C000021184601F00EFA3B1D00221A605A6056
:10087C009A60DA601A610123BB614FF48033FB612B
:10088C0000233B620123BB6202237B634FF4803362
:10089C00BB634FF4E013FB6307F11803184600F039
:1008AC00C7FD0346002B01D000F094F80F237B60AA
:1008BC000223BB600023FB604FF480633B61002389
:1008CC007B613B1D0221184601F032F80346002BD8
:1008DC0001D000F07FF800BF4037BD4680BD00005E
:1008EC0080B500AF124B134A1A60114B124A5A6072
:1008FC000F4B00229A600E4B0022DA600C4B4FF427
:10090C0080421A610A4B00225A61094B00229A61FB
:10091C00074B0022DA61064B00221A62044800F0F1
:10092C0043FC0346002B01D000F054F800BF80BDFF
:10093C003C00002000540040A086010080B588B027
:10094C0000AF07F1100300221A605A609A60DA6057
:10095C001E4B9B691D4A43F0200393611B4B9B6903
:10096C0003F02003FB60FB68184B9B69174A43F0AC
:10097C0008039361154B9B6903F00803BB60BB68CC
:10098C00124B9B69114A43F0040393610F4B9B6913
:10099C0003F004037B607B68012240F628010C48BD
:1009AC0000F0E9FB40F628033B6101237B61002347
:1009BC00BB610223FB6107F110031946044800F0E8
:1009CC003FFA00BF2037BD4680BD00BF001002407B
:1009DC00000C014080B400AF00BFBD4680BC704726
:1009EC0080B485B000AF154B9B69144A43F00103EA
:1009FC009361124B9B6903F00103BB60BB680F4B07
:100A0C00DB690E4A43F08053D3610C4BDB6903F076
:100A1C0080537B607B680A4B5B68FB60FB6823F050
:100A2C00E063FB60FB6843F00073FB60044AFB6807
:100A3C00536000BF1437BD4680BC704700100240A5
:100A4C000000014080B58AB000AF786007F1140354
:100A5C0000221A605A609A60DA607B681B681D4A33
:100A6C00934232D11C4B9B691B4A43F008039361A0
:100A7C00194B9B6903F008033B613B694FF44073CE
:100A8C007B611223BB6103233B6207F114031946FC
:100A9C00124800F0D5F9124B5B687B627B6A43F01D
:100AAC00E0637B627B6A43F002037B620C4A7B6AE5
:100ABC005360094BDB69084A43F40013D361064BBE
:100ACC00DB6903F40013FB60FB6800BF2837BD46ED
:100ADC0080BD00BF0054004000100240000C0140DB
:100AEC000000014080B400AF00BFBD4680BC704721
:100AFC0080B400AFFEE780B400AFFEE780B400AF77
:100B0C00FEE780B400AFFEE780B400AF00BFBD4687
:100B1C0080BC704780B400AF00BFBD4680BC70473E
:100B2C0080B400AF00BFBD4680BC704780B500AF3D
:100B3C00084B1B78002B05D0074B1B680133064A6A
:100B4C00136002E0044B00221A6000F079F800BF39
:100B5C0080BD00BF000000202C00002080B400AF3E
:100B6C0000BFBD4680BC7047002103E00B4B5B58B7
:100B7C00435004310A480B4B42189A42F6D30A4AA6
:100B8C0002E0002342F8043B084B9A42F9D3FFF7EA
:100B9C00E5FF01F053F8FFF7EDFD7047F01C00087E
:100BAC000000002010000020100000209400002005
:100BBC00FEE7000080B500AF084B1B68074A43F006
:100BCC0010031360032000F007F9002000F008F870
:100BDC00FFF706FF0023184680BD00BF002002402F
:100BEC0080B582B000AF7860124B1A68124B1B783C
:100BFC0019464FF47A73B3FBF1F3B2FBF3F31846D7
:100C0C0000F011F90346002B01D001230EE07B68A4
:100C1C000F2B0AD8002279684FF0FF3000F0E7F86C
:100C2C00064A7B681360002300E00123184608374E
:100C3C00BD4680BD040000200C00002008000020F0
:100C4C0080B400AF054B1B781A46054B1B68134448
:100C5C00034A136000BFBD4680BC70470C000020E7
:100C6C009000002080B400AF024B1B681846BD46B4
:100C7C0080BC70479000002080B485B000AF7860D5
:100C8C007B6803F00703FB600C4BDB68BB60BA6846
:100C9C004FF6FF031340BB60FB681A02BB6813439B
:100CAC0043F0BF6343F40033BB60044ABB68D360BA
:100CBC0000BF1437BD4680BC704700BF00ED00E09C
:100CCC0080B400AF044BDB681B0A03F00703184623
:100CDC00BD4680BC704700BF00ED00E080B483B01F
:100CEC0000AF03463960FB7197F90730002B0ADB24
:100CFC003B68DAB20C4997F907301201D2B20B44B7
:100D0C0083F800230AE03B68DAB20849FB7903F068
:100D1C000F03043B1201D2B20B441A7600BF0C37FE
:100D2C00BD4680BC704700BF00E100E000ED00E074
:100D3C0080B489B000AFF860B9607A60FB6803F0EA
:100D4C000703FB61FB69C3F10703042B28BF0423D2
:100D5C00BB61FB690433062B02D9FB69033B00E042
:100D6C0000237B614FF0FF32BB6902FA03F3DA43D5
:100D7C00BB681A407B699A404FF0FF317B6901FADE
:100D8C0003F3D9437B680B40134318462437BD4605
:100D9C0080BC704780B582B000AF78607B68013B47
:100DAC00B3F1807F01D301230FE00A4A7B68013B3A
:100DBC0053600F214FF0FF30FFF790FF054B0022DF
:100DCC009A60044B07221A60002318460837BD4668
:100DDC0080BD00BF10E000E080B582B000AF78604D
:100DEC007868FFF749FF00BF0837BD4680BD80B566
:100DFC0086B000AF0346B9607A60FB7300237B6159
:100E0C00FFF75EFF78617A68B9687869FFF790FF41
:100E1C00024697F90F3011461846FFF75FFF00BFE7
:100E2C001837BD4680BD80B582B000AF7860786859
:100E3C00FFF7B0FF034618460837BD4680BD0000DB
:100E4C0080B48BB000AF7860396000237B620023E4
:100E5C003B6269E101227B6A02FA03F3FB613B68A6
:100E6C001B68FA691340BB61BA69FB699A4240F08E
:100E7C0058813B685B689A4A93425ED0984A934289
:100E8C0075D8984A934258D0964A93426FD8964A4E
:100E9C00934252D0944A934269D8944A93424CD08C
:100EAC00924A934263D8924A934246D0904A9342D4
:100EBC005DD8122B2AD8122B59D801A252F823F044
:100ECC00470F0008210F0008330F0008750F0008AA
:100EDC007B0F00087B0F00087B0F00087B0F0008BE
:100EEC007B0F00087B0F00087B0F00087B0F0008AE
:100EFC007B0F00087B0F00087B0F00087B0F00089E
:100F0C007B0F0008290F00083D0F0008794A934217
:100F1C0013D02CE03B68DB683B6229E03B68DB6864
:100F2C0004333B6224E03B68DB6808333B621FE020
:100F3C003B68DB680C333B621AE03B689B68002B18
:100F4C0002D104233B6213E03B689B68012B05D163
:100F5C0008233B627B68FA691A6109E008233B624B
:100F6C007B68FA695A6103E000233B6200E000BF32
:100F7C00BB69FF2B01D87B6801E07B6804337B6184
:100F8C00BB69FF2B02D87B6A9B0002E07B6A083BA3
:100F9C009B003B617B691A680F213B6901FA03F3E3
:100FAC00DB431A40396A3B6901FA03F31A437B6944
:100FBC001A603B685B6803F08053002B00F0B18033
:100FCC004D4B9B694C4A43F0010393614A4B9B691F
:100FDC0003F00103BB60BB68484A7B6A9B08023381
:100FEC0052F82330FB607B6A03F003039B000F2253
:100FFC0002FA03F3DB43FA681340FB607B68404A58
:10100C00934213D07B683F4A93420DD07B683E4A93
:10101C00934207D07B683D4A934201D1032306E0FB
:10102C00042304E0022302E0012300E000237A6A97
:10103C0002F0030292009340FA681343FB602F49BD
:10104C007B6A9B080233FA6841F823203B685B6893
:10105C0003F48033002B06D02D4B1A682C49BB6946
:10106C0013430B6006E02A4B1A68BB69DB43284923
:10107C0013400B603B685B6803F40033002B06D015
:10108C00234B5A682249BB6913434B6006E0204B43
:10109C005A68BB69DB431E4913404B603B685B6875
:1010AC0003F48013002B06D0194B9A681849BB69BE
:1010BC0013438B6006E0164B9A68BB69DB431449FB
:1010CC0013408B603B685B6803F40013002B21D04A
:1010DC000F4BDA680E49BB691343CB6021E000BFAC
:1010EC00000032100000311000002210000021100E
:1010FC00000012100000111000100240000001400E
:10110C0000080140000C0140001001400014014097
:10111C00000401400B4BDA68BB69DB4309491340FF
:10112C00CB607B6A01337B623B681A687B6A22FA6C
:10113C0003F3002B7FF48EAE00BF00BF2C37BD46EF
:10114C0080BC70470004014080B485B000AF78606B
:10115C000B467B807B689A687B881340002B02D0FF
:10116C000123FB7301E00023FB73FB7B1846143750
:10117C00BD4680BC704780B483B000AF78600B462E
:10118C007B8013467B707B78002B03D07A887B683E
:10119C001A6103E07B881A047B681A6100BF0C3764
:1011AC00BD4680BC7047000080B584B000AF78604D
:1011BC007B68002B01D101232BE17B6893F83D3038
:1011CC00DBB2002B06D17B68002283F83C207868C8
:1011DC00FFF738FC7B68242283F83D207B681B6872
:1011EC001A687B681B6822F001021A607B681B6816
:1011FC001A687B681B6842F400421A607B681B68A3
:10120C001A687B681B6822F400421A6000F0E4FC48
:10121C00F8607B685B68814A934207D8FB68804A18
:10122C00934294BF01230023DBB206E0FB687D4AA6
:10123C00934294BF01230023DBB2002B01D0012386
:10124C00E7E0FB68784AA2FB03239B0CBB607B683E
:10125C001B685B6823F03F017B681B68BA680A4314
:10126C005A607B681B681B6A23F03F017B685B68D4
:10127C006A4A934202D8BB68013309E0BB684FF459
:10128C00967202FB03F3694AA2FB03239B09013309
:10129C007A6812680B4313627B681B68DB6923F462
:1012AC004F4222F0FF027B685B685C498B4219D885
:1012BC00FB68591E7B685B685B00B1FBF3F3591C40
:1012CC0040F6FC730B40002B0AD0FB68591E7B6860
:1012DC005B685B00B1FBF3F30133C3F30B0351E029
:1012EC0004234FE07B689B68002B11D1FB68581ED0
:1012FC007B6859680B465B000B44B0FBF3F301337E
:10130C00C3F30B03002B0CBF01230023DBB212E051
:10131C00FB68581E7B6859680B469B000B44990070
:10132C000B44B0FBF3F30133C3F30B03002B0CBFE3
:10133C0001230023DBB2002B01D0012322E07B68C8
:10134C009B68002B0ED1FB68581E7B6859680B46B6
:10135C005B000B44B0FBF3F30133C3F30B0343F417
:10136C0000430FE0FB68581E7B6859680B469B00D6
:10137C000B4499000B44B0FBF3F30133C3F30B03A1
:10138C0043F44043796809681343CB617B681B685D
:10139C001B6823F0C0017B68DA697B681B6A1A43FF
:1013AC007B681B680A431A607B681B689B6823F484
:1013BC00034323F0FF037A6811697A68D2681143FA
:1013CC007A6812680B4393607B681B68DB6823F0B8
:1013DC00FF017B685A697B689B691A437B681B68B1
:1013EC000A43DA607B681B681A687B681B6842F0EA
:1013FC0001021A607B6800221A647B68202283F841
:10140C003D207B6800221A637B68002283F83E2013
:10141C00002318461037BD4680BD00BFA0860100D2
:10142C007F841E00FF083D0083DE1B43D34D6210FA
:10143C0080B586B000AF78607B68002B01D10123AA
:10144C006CE27B681B6803F00103002B00F08780C3
:10145C00924B5B6803F00C03042B0CD08F4B5B6836
:10146C0003F00C03082B12D18C4B5B6803F4803314
:10147C00B3F5803F0BD1894B1B6803F40033002B71
:10148C006CD07B685B68002B68D1012346E27B68DB
:10149C005B68B3F5803F06D1804B1B687F4A43F4F1
:1014AC00803313602EE07B685B68002B0CD17B4B88
:1014BC001B687A4A23F480331360784B1B68774A95
:1014CC0023F4802313601DE07B685B68B3F5A02FC9
:1014DC000CD1724B1B68714A43F4802313606F4B21
:1014EC001B686E4A43F4803313600BE06B4B1B6834
:1014FC006A4A23F480331360684B1B68674A23F4F1
:10150C00802313607B685B68002B13D0FFF7AAFB6A
:10151C00386108E0FFF7A6FB02463B69D31A642B3F
:10152C0001D90323FAE15D4B1B6803F40033002B54
:10153C00F0D014E0FFF796FB386108E0FFF792FB60
:10154C0002463B69D31A642B01D90323E6E1534BC2
:10155C001B6803F40033002BF0D100E000BF7B6864
:10156C001B6803F00203002B63D04C4B5B6803F049
:10157C000C03002B0BD0494B5B6803F00C03082BBE
:10158C001CD1464B5B6803F48033002B16D1434BC4
:10159C001B6803F00203002B05D07B681B69012B31
:1015AC0001D00123BAE13D4B1B6823F0F8027B68A4
:1015BC005B69DB00394913430B603AE07B681B69BC
:1015CC00002B20D0364B01221A60FFF74BFB386101
:1015DC0008E0FFF747FB02463B69D31A022B01D9FF
:1015EC0003239BE12D4B1B6803F00203002BF0D06F
:1015FC002A4B1B6823F0F8027B685B69DB002749E8
:10160C0013430B6015E0264B00221A60FFF72AFBF0
:10161C00386108E0FFF726FB02463B69D31A022B20
:10162C0001D903237AE11D4B1B6803F00203002B45
:10163C00F0D17B681B6803F00803002B3AD07B6861
:10164C009B69002B19D0174B01221A60FFF70AFB7C
:10165C00386108E0FFF706FB02463B69D31A022B00
:10166C0001D903235AE10D4B5B6A03F00203002BF3
:10167C00F0D0012000F0C4FA1CE00A4B00221A60E2
:10168C00FFF7F0FA38610FE0FFF7ECFA02463B691E
:10169C00D31A022B08D9032340E100BF00100240EB
:1016AC0000004242800442429E4B5B6A03F00203FC
:1016BC00002BE9D17B681B6803F00403002B00F0BE
:1016CC00A6800023FB75974BDB6903F08053002B3E
:1016DC000DD1944BDB69934A43F08053D361914B0A
:1016EC00DB6903F08053BB60BB680123FB758E4B39
:1016FC001B6803F48073002B18D18B4B1B688A4A30
:10170C0043F480731360FFF7ADFA386108E0FFF71C
:10171C00A9FA02463B69D31A642B01D90323FDE0D5
:10172C00814B1B6803F48073002BF0D07B68DB6863
:10173C00012B06D17B4B1B6A7A4A43F001031362DF
:10174C002DE07B68DB68002B0CD1764B1B6A754A4D
:10175C0023F001031362734B1B6A724A23F00403D8
:10176C0013621CE07B68DB68052B0CD16D4B1B6A8C
:10177C006C4A43F0040313626A4B1B6A694A43F0D8
:10178C00010313620BE0674B1B6A664A23F00103EB
:10179C001362644B1B6A634A23F0040313627B6875
:1017AC00DB68002B15D0FFF75DFA38610AE0FFF714
:1017BC0059FA02463B69D31A41F28832934201D955
:1017CC000323ABE0574B1B6A03F00203002BEED054
:1017DC0014E0FFF747FA38610AE0FFF743FA0246D4
:1017EC003B69D31A41F28832934201D9032395E025
:1017FC004C4B1B6A03F00203002BEED1FB7D012B3B
:10180C0005D1484BDB69474A23F08053D3617B6891
:10181C00DB69002B00F08180424B5B6803F00C030A
:10182C00082B61D07B68DB69022B46D13F4B002231
:10183C001A60FFF717FA386108E0FFF713FA02464F
:10184C003B69D31A022B01D9032367E0354B1B6884
:10185C0003F00073002BF0D17B681B6AB3F5803F5B
:10186C0008D1304B5B6823F400327B689B682D49B0
:10187C0013434B602B4B5B6823F474127B68196A1F
:10188C007B685B6A0B43274913434B60274B012250
:10189C001A60FFF7E7F9386108E0FFF7E3F9024651
:1018AC003B69D31A022B01D9032337E01D4B1B686C
:1018BC0003F00073002BF0D02FE01C4B00221A60B9
:1018CC00FFF7D0F9386108E0FFF7CCF902463B6925
:1018DC00D31A022B01D9032320E0124B1B6803F00F
:1018EC000073002BF0D118E07B68DB69012B01D170
:1018FC00012313E00B4B5B68FB60FB6803F4803245
:10190C007B681B6A9A4206D1FB6803F470127B68F1
:10191C005B6A9A4201D0012300E000231846183775
:10192C00BD4680BD00100240007000406000424285
:10193C0080B584B000AF786039607B68002B01D132
:10194C000123D0E06A4B1B6803F007033A689A4204
:10195C0010D9674B1B6823F0070265493B6813439A
:10196C000B60634B1B6803F007033A689A4201D083
:10197C000123B8E07B681B6803F00203002B20D026
:10198C007B681B6803F00403002B05D0594B5B6884
:10199C00584A43F4E06353607B681B6803F0080308
:1019AC00002B05D0534B5B68524A43F46053536091
:1019BC00504B5B6823F0F0027B689B684D491343E6
:1019CC004B607B681B6803F00103002B40D07B68E5
:1019DC005B68012B07D1474B1B6803F40033002BCA
:1019EC0015D101237FE07B685B68022B07D1414B4B
:1019FC001B6803F00073002B09D1012373E03D4BEE
:101A0C001B6803F00203002B01D101236BE0394B5F
:101A1C005B6823F003027B685B68364913434B60B9
:101A2C00FFF720F9F8600AE0FFF71CF90246FB68A3
:101A3C00D31A41F28832934201D9032353E02D4B40
:101A4C005B6803F00C027B685B689B009A42EBD1ED
:101A5C00274B1B6803F007033A689A4210D2244BB9
:101A6C001B6823F0070222493B6813430B60204B91
:101A7C001B6803F007033A689A4201D0012332E055
:101A8C007B681B6803F00403002B08D0194B5B68C0
:101A9C0023F4E0627B68DB68164913434B607B6878
:101AAC001B6803F00803002B09D0124B5B6823F46E
:101ABC0060527B681B69DB000E4913434B6000F0DE
:101ACC0021F802460B4B5B681B0903F00F030A4914
:101ADC00CB5C22FA03F3094A1360094B1B681846C6
:101AEC00FFF77EF8002318461037BD4680BD00BFB7
:101AFC000020024000100240D01C0008040000200E
:101B0C000800002090B48AB000AF2A4B3C1D0FCBCC
:101B1C0084E80F0040F201233B800023FB6100238B
:101B2C00BB6100237B6200237B6100233B62224B61
:101B3C005B68FB61FB6903F00C03042B02D0082BE0
:101B4C0003D02DE01D4B3B622DE0FB699B0C03F099
:101B5C000F0307F12802134413F8243C7B61FB6943
:101B6C0003F48033002B13D0134B5B685B0C03F036
:101B7C00010307F12802134413F8283CBB617B696D
:101B8C000E4A02FB03F2BB69B2FBF3F37B6204E087
:101B9C007B690B4A02FB03F37B627B6A3B6202E0CC
:101BAC00064B3B6200BF3B6A18462837BD4690BCCB
:101BBC00704700BFC01C00080010024000127A00E1
:101BCC0000093D0080B400AF024B1B681846BD46AF
:101BDC0080BC70470400002080B500AFFFF7F2FF17
:101BEC000246054B5B681B0A03F007030349CB5CF9
:101BFC0022FA03F3184680BD00100240E01C0008D6
:101C0C0080B485B000AF78600A4B1B680A4AA2FB0F
:101C1C0003235B0A7A6802FB03F3FB6000BFFB68DB
:101C2C005A1EFA60002BF9D100BF00BF1437BD4615
:101C3C0080BC704704000020D34D621070B50026A4
:101C4C000C4D0D4C641BA410A64209D100F022F8D7
:101C5C0000260A4D0A4C641BA410A64205D170BD87
:101C6C0055F8043B98470136EEE755F8043B984786
:101C7C000136F2E7E81C0008E81C0008E81C000824
:101C8C00EC1C000803460244934200D1704703F851
:101C9C00011BF9E7F8B500BFF8BC08BC9E467047BD
:0C1CAC00F8B500BFF8BC08BC9E467047AD
:101CB8003136303300000000020304050607080926
:101CC8000A0B0C0D0E0F10100000000000000000A1
:101CD80001020304060708090000000001020304CA
:041CE80031010008BE
:041CEC000D010008DE
:101CF000010000000024F4001000000001000000BA
:0400000508000B756F
:00000001FF
